S01500004861636B6174686C6F6E2D48412E737265635C
S11300000C9434000C943E000C943E000C943E007E
S11300100C943E000C943E000C943E000C943E0064
S11300200C943E000C943E000C943E000C943E0054
S11300300C943E000C943E000C943E000C943E0044
S11300400C943E000C943E000C943E000C943E0034
S11300500C943E000C943E000C943E000C943E0024
S11300600C943E000C943E0011241FBECFEFD8E048
S1130070DEBFCDBF0E944C000C9499000C9400008C
S11300808EE40E945E0080E60E94830088E80E945D
S113009083000E94950008950E945A000E94400027
S11300A02FEF83ED90E3215080409040E1F700C0B2
S11300B00000F6CF88E48093B8000895ECEBF0E0FC
S11300C0108294EA908390819923ECF79091B9007F
S11300D0987F9830A1F48093BB0084E88093BC009F
S11300E0ECEBF0E080818823ECF79091B900987FE5
S11300F0983139F081E0903429F480E0089581E06A
S1130100089580E008958093BB0084E88093BC0048
S1130110ECEBF0E080818823ECF79091B900987FB4
S113012081E0983209F480E0089584E98093BC006A
S10901300895F894FFCFCE
S9030000FC
