S01500004861636B6174686C6F6E2D48412E737265635C
S11300000C9434000C943E000C943E000C943E007E
S11300100C943E000C943E000C943E000C943E0064
S11300200C943E000C943E000C943E000C943E0054
S11300300C943E000C943E000C943E000C943E0044
S11300400C943E000C943E000C943E000C943E0034
S11300500C943E000C943E000C943E000C943E0024
S11300600C943E000C943E0011241FBECFEFD8E048
S1130070DEBFCDBF0E9440000C9453000C940000DE
S113008080E284B980E091E0892711F02D9A01C0C3
S11300902D982FEF39E648E1215030404040E1F7F8
S10D00A000C00000F1CFF894FFCF78
S9030000FC
