S01500004861636B6174686C6F6E2D48412E737265635C
S11300000C9434000C9451000C9451000C94510045
S11300100C9451000C9451000C9451000C94CE0A91
S11300200C9451000C9451000C9451000C94C40A8B
S11300300C9451000C9451000C9451000C945100F8
S11300400C94B60A0C9451000C94720B0C94460B4D
S11300500C9451000C9451000C9451000C945100D8
S11300600C9451000C94510011241FBECFEFD8E022
S1130070DEBFCDBF11E0A0E0B1E0EAE0F8E102C0EC
S113008005900D92A030B107D9F721E0A0E0B1E0CE
S113009001C01D92AC3FB207E1F70E9461090C94C4
S11300A0030C0C940000FC01892B81F08381948162
S11300B0892B71F085819681892B61F081E02781FC
S11300C03085232B09F080E0819508958FEF089502
S11300D08FEF08958FEF0895CF92DF92EF92FF9202
S11300E01F93CF93DF93182F7B016A01E901C901A4
S11300F00E94530081110DC08A81813009F010687B
S1130100EB81FC819601A701612F898109958111F9
S11301108CEFDF91CF911F91FF90EF90DF90CF9004
S11301200895BF92CF92DF92EF92FF920F931F93A5
S1130130CF93DF93CDB7DEB764970FB6F894DEBFE5
S11301400FBECDBF6C018B017901B42E8AE08417F8
S113015020F40F2EFAE0BF2EF02DC7010E945300A9
S1130160811153C0C114D10409F451C00115110502
S113017009F44FC0BB2009F44EC0D8018C91898387
S1130180F7018281813009F448C0F6012FEF2B0D6D
S113019030E02F5F3F4F2C0D3D1D80818F77819381
S11301A0E217F307D1F7F1E0FB15D8F496012F5FBE
S11301B03F4FFE0131960F5F1F4F81E0D9019D91A2
S11301C09D019183D8019D918D0192838F5F329619
S11301D08B15A0F32B2D30E0220F331F2150310952
S11301E002C02B2D30E0D7011596ED91FC911697A6
S11301F0AE014F5F5F4FD6016C91D70111968C9180
S11302000995882371F08CEF0CC08FEF0AC08FEF33
S113021008C08FEF06C08DEF04C0B1E0BB1530F20B
S1130220E0CF64960FB6F894DEBF0FBECDBFDF916A
S1130230CF911F910F91FF90EF90DF90CF90BF90DF
S11302400895CF92DF92EF92FF921F93CF93DF93A3
S113025000D01F92CDB7DEB7182F6B017A0182FF51
S113026027C082EF8983FB01828187708B839A0187
S113027041E0BE016D5F7F4FCE0101960E94910067
S1130280811117C084EF8983970141E050E0BE01DA
S11302906E5F7F4F0E946C0081110BC0970141E09B
S11302A0BE016E5F7F4FCE0101960E94910001C096
S11302B081E0912F937071F184EF8A83970141E07B
S11302C050E0BE016F5F7F4F0E946C00811122C01D
S11302D010FF0AC0F6018081880F880F982F9C7147
S11302E08981837E892B898311FF0BC08981282F03
S11302F02F71F6019181F0E29F9FC0011124822B9E
S11303008983970141E0BE016F5F7F4FCE01029662
S11303100E9491000F900F900F90DF91CF911F9149
S1130320FF90EF90DF90CF900895CF92DF92FF92ED
S11303300F931F93CF93DF9300D0CDB7DEB7F82E82
S11303406B018A0185EF89839A0141E050E0BE0187
S11303506E5F7F4F0E946C00811122C0F3FE0AC0C1
S1130360F6018381880F880F982F9C718A81837E80
S1130370892B8A83F4FE0BC08A81282F2F71F60102
S11303809481F0E29F9FC0011124822B8A839801FB
S113039041E0BE016E5F7F4FCE0101960E94910045
S11303A00F900F90DF91CF911F910F91FF90DF90ED
S11303B0CF9008950F931F93CF93DF938C01EB019C
S11303C0CB010E94530081110BC09E0141E050E01B
S11303D0B80184EF0E946C00F801908193709083BF
S11303E0DF91CF911F910F910895EF92FF921F9388
S11303F0CF93DF9300D0CDB7DEB77C0180EE898345
S113040086EB8A83C7010E945300182F811114C000
S1130410970141E0BE016E5F7F4FCE0101960E94BD
S11304209100182FD7011796ED91FC91189762E06F
S113043070E080E090E00995812F0F900F90DF919C
S1130440CF911F91FF90EF900895EF92FF921F9329
S1130450CF93DF93CDB7DEB76B970FB6F894DEBFBB
S11304600FBECDBF7C0119820E9453008111E7C0E9
S113047015E0970141E050E0BE016F5F7F4F80EDD2
S11304800E946C008111C9C08981803609F0C5C001
S1130490D7018C93C7010E94F5018111CDC0BE0123
S11304A06E5F7F4F8AE1FB0111928A95E9F797010C
S11304B04AE150E088E80E946C008111BDC08B8144
S11304C090E0982F88272A81822BD7011A969C9333
S11304D08E9319978D8190E0982F88272C81822BF9
S11304E01C969C938E931B978F8190E0982F88275E
S11304F02E81822B1E969C938E931D97898590E066
S1130500982F88272885822B50969C938E931F972B
S11305108B8590E0982F88272A85822B52969C936E
S11305208E9351978D8590E0982F88272C85822B68
S113053054969C938E9353978F8590E0982F882799
S11305402E85822B56969C938E935597898990E09D
S1130550982F88272889822B58969C938E93579797
S11305608B8990E0982F88272A89822B5A969C930E
S11305708E9359978D8990E0982F88272C89822B08
S11305805C969C938E935B978F8990E0982F882735
S11305902E89822B5E969C938E935D97898D90E035
S11305A0982F8827288D822B90969C938E935F9703
S11305B08B8D91968C93970147E050E0BE016E5F5E
S11305C07F4F81EE0E946C00811136C02B8130E098
S11305D0322F22279A81292BF70133A322A39C814E
S11305E094A39E812D81F0E12F0290011124492FC3
S11305F04F70242BD70196963C932E9395972F8179
S1130600B0E12B029001112492959F70292BF701E0
S113061030A727A3988591A70FC0D7011796ED910E
S1130620FC91189761E070E080E090E0099511502A
S113063009F01FCF8EEF03C0111101C08EEF6B962E
S11306400FB6F894DEBF0FBECDBFDF91CF911F91DF
S1130650FF90EF9008950F931F93CF93DF93CDB73F
S1130660DEB729970FB6F894DEBF0FBECDBF8C015D
S11306709C0144E050E0BE016F5F7F4F82EF0E9417
S11306806C00811132C0898187708F832B81822F06
S11306908C7190E095958795959587958D83229596
S11306A0269527702E832C81822F8C7190E095954E
S11306B0879595958795888722952695277029870C
S11306C0C8010E94F501811110C0A801BE016B5F31
S11306D07F4F8FE10E942101811107C0A801BE0153
S11306E06B5F7F4F8FE10E94950129960FB6F894B6
S11306F0DEBF0FBECDBFDF91CF911F910F91089543
S1130700EF92FF920F931F93CF93DF931F92CDB776
S1130710DEB7082F7B01CB010E945300182F8111F3
S11307202BC0B701CE0101960E94DA01182F811166
S113073023C08981882329F0C7010E942B038111DA
S113074018C0802F877049F0A701B701625D7F4F01
S1130750802F0E94210181110EC0802F887161F0C9
S1130760B701625D7F4FA701802F0E949501182F6A
S113077003C0182F01C0182F812F0F90DF91CF9144
S11307801F910F91FF90EF900895FF920F931F9385
S1130790CF93DF9300D01F92CDB7DEB7F82E8B0135
S11307A0CB010E94530081112BC0B801CE010196E8
S11307B00E94DA01811124C08981882329F0C801AB
S11307C00E942B0381111CC084EF8B83980141E0AC
S11307D050E0BE016E5F7F4F0E946C00811110C01B
S11307E09A819C7F8F2D8370F92EF82AFA829801C2
S11307F041E0BE016E5F7F4FCE0103960E949100DF
S11308000F900F900F90DF91CF911F910F91FF9058
S113081008950F931F93FC01DB01408150E060E0D9
S113082070E08A019B010F2EFCE0000F111F221FB4
S1130830331FFA95D1F7F02D8181482F50E060E005
S113084070E0440F551F661F771F440F551F661F26
S1130850771F440F551F661F771F440F551F661FD0
S1130860771F402B512B622B732B828182958F70C3
S1130870482B4D935D936D937C931397438150E084
S113088060E070E08A019B010F2EFCE0000F111F55
S1130890221F331FFA95D1F7F02D8481482F50E0A1
S11308A060E070E0440F551F661F771F440F551F0B
S11308B0661F771F440F551F661F771F440F551F70
S11308C0661F771F402B512B622B732B85818295DA
S11308D08F70482B14964D935D936D937C9317976B
S11308E0468150E060E070E0762F652F542F442756
S11308F08781482B18964D935D936D937C931B973A
S11309001F910F9108952F923F924F925F926F9291
S11309107F928F929F92AF92BF92CF92DF92EF928B
S1130920FF920F931F93CF93DF9300D01F92CDB705
S1130930DEB789831B018A013B832A836115710514
S113094009F400C44115510509F4FEC3211531050C
S113095009F4FCC3FA0114821582168217821082EC
S11309601182128213821086118612861386877072
S113097009F4C2C0FB01C480D580E680F780F90188
S113098040805180B701A601689412F87695679566
S1130990579547951694D1F7612C712CD301C20158
S11309A0880F991FAA1FBB1F9A01AB01281B390B83
S11309B04A0B5B0BA281B3810E94EC0B4B015C01DF
S11309C0D701C601689413F8B695A79597958795AE
S11309D01694D1F7BC01CD016419750986099709EC
S11309E09B01AC010E94900B6B017C01992334F4B0
S11309F0FFEFCF0EFFE0DF1EE11CF11CA701960103
S1130A00012E1CE055954795379527951A95D1F7F2
S1130A10102DEA81FB81A481B5810E94EC0B750144
S1130A206401BB2034F4FFEFCF0EF7E0DF1EE11CBE
S1130A30F11C0B2EBBE0F594E794D794C794BA95B8
S1130A40D1F7B02D4B015C01992334F42FEF820EC2
S1130A502FE3921EA11CB11CB501A401032E3EE09C
S1130A6075956795579547953A95D1F7302DD701E8
S1130A70C601840F951FA61FB71FEA81FB8181A3BE
S1130A8092A3A3A3B4A3AC01BD01440F551F661FD9
S1130A90771F440F551F661F771F840F951FA61FCE
S1130AA0B71F80589F4FAF4FBF4FAC01BD0122F419
S1130AB041505F4F6F4F7F4FBB2777FDBA95A72FEC
S1130AC0962F852F8533F1E29F07A105B10524F008
S1130AD084E391E2A0E0B0E0803620EF92072FEFAC
S1130AE0A207B20724F480E690EFAFEFBFEFF8015E
S1130AF084839583A683B783F981F0FFD1C1EA810A
S1130B00FB81C1A0D2A0E3A0F4A0FF202CF4FFEF4E
S1130B10CF1ADF0AEF0AFF0AF594E794D794C79433
S1130B202AEFD21AE108F108D701C601FF201CF40C
S1130B300396A11DB11DBC01CD01959587957795AF
S1130B40679595958795779567959B01AC010E946C
S1130B50900B2B013C01EA81FB8122853385032E16
S1130B60000C440B550BDC01CB01772024F481509D
S1130B70904EAF4FBF4FBC01CD01052E5DE0959562
S1130B808795779567955A95D1F7502D0E94900BCC
S1130B904B015C0199232CF4F7E08F0E911CA11CEE
S1130BA0B11C689412F8B594A794979487941694FA
S1130BB0D1F7EA81FB81A085B185A70196010E9446
S1130BC0EC0B9B01AC01992324F42F5F3F4F4F4F53
S1130BD05F4FDA01C901B595A79597958795880E5A
S1130BE0991EAA1EBB1ED501C401BB201CF401978B
S1130BF0AC4FBF4F072E72E1B595A7959795879592
S1130C007A95D1F7702D9C01AD0130584F4F5F4F4D
S1130C10EA81FB81A681B7810E94E10B4B015C0153
S1130C20992334F4FFEF8F0EFFE79F1EA11CB11C24
S1130C30072E7FE0B594A794979487947A95D1F77B
S1130C40702D81149104A104B10409F41BC1D301D2
S1130C50C201772024F48150984FAF4FBF4F9C01BD
S1130C60AD01012E1BE055954795379527951A95AB
S1130C70D1F7102DEA81FB81A089B1890E94EC0B88
S1130C802B013C01A685B785A70196010E94EC0BB8
S1130C90DC01CB01880F991FAA1FBB1F480E591EE8
S1130CA06A1E7B1ED301C20177201CF40396A11D8A
S1130CB0B11DB595A79597958795B595A7959795E2
S1130CC08795F1014081518162817381C12CD12CBE
S1130CD076016894E4F8C41AD50AE60AF70AEA81A8
S1130CE0FB8144855585052E000C660B770BBA01F4
S1130CF055274427480F591F6A1F7B1F2A013B01B0
S1130D00772334F4FFEF4F0EFFE05F1E611C711C6C
S1130D10032E3CE075946794579447943A95D1F721
S1130D20302DA70196012419350946095709A5E371
S1130D30BCE00E94E10B99235CF0660F771F881FCB
S1130D40991FA50194010E94A00B69017A010AC0B0
S1130D50A50194010E94A00B69017A01CC0CDD1C51
S1130D60EE1CFF1CC701B601689412F8969587958E
S1130D70779567951694D1F79B01AC010E94900B6F
S1130D809B01AC01012E1DE056954795379527959B
S1130D901A95D1F7102DEA81FB81A689B7890E94A3
S1130DA0EC0B4B015C01992334F4FFEF8F0EFFE051
S1130DB09F1EA11CB11C072E7CE0B594A7949794A8
S1130DC087947A95D1F7702DEA81FB81A489B5893E
S1130DD0A7019601569547953795279556954795BA
S1130DE0379527950E94EC0B2B013C01992334F491
S1130DF0FFEF4F0EFFE15F1E611C711CD301C201A6
S1130E00072E7DE0B595A795979587957A95D1F7A7
S1130E10702D880E991EAA1EBB1EEA81FB81828951
S1130E209389092E000CAA0BBB0B880E991EAA1ECF
S1130E30BB1ED501C401BB201CF40F96A11DB11D1E
S1130E40689413F8B595A795979587951694D1F757
S1130E50C80ED91EEA1EFB1EF0E3CF16F5E7DF0627
S1130E60E104F104A0F0D701C60121EBC2162DEA7A
S1130E70D20621E0E206F10470F080EB9DEAA1E0E5
S1130E80B0E009C080E395E7A0E0B0E004C080E3EF
S1130E9095E7A0E0B0E0F80180839183A283B38357
S1130EA0F981F2FF55C1EA81FB8181A092A0A3A040
S1130EB0B4A0FCE29F1AF1E0AF0AB108F101C084CA
S1130EC0D184E284F3840B2EBEE0CC0CDD1CEE1C3A
S1130ED0FF1CBA95D1F7B02DEA81FB81448D558D65
S1130EE0052E000C660B770B032E34E1440F551FBF
S1130EF0661F771F3A95D1F7302DC41AD50AE60A32
S1130F00F70AA68DB78DA50194010E94EC0BA701E9
S1130F109601261B370B480B590BDA01C901905C6B
S1130F20AF4FBF4F6C017D01BB2334F43FEFC30EC1
S1130F303FE7D31EE11CF11C0B2EBFE0F594E794B0
S1130F40D794C794BA95D1F7B02DEA81FB81A38DCC
S1130F50B0E0A50194010E94E10B2B013C0199230F
S1130F6034F4FFEF4F0EF7E05F1E611C711C032E7B
S1130F703BE075946794579447943A95D1F7302D94
S1130F8020E8520E611C711CEA81FB81A0A10A2E8B
S1130F90000CBB0BA50194010E94EC0B4B015C01FE
S1130FA0992334F4FFEF8F0EF3E09F1EA11CB11CB4
S1130FB0C501B401052E5AE09595879577956795F7
S1130FC05A95D1F7502DA30192010E94900B4B0129
S1130FD05C01992334F42FEF820E23E0921EA11CAE
S1130FE0B11CD501C401072E7AE0B595A795979554
S1130FF087957A95D1F7702D9C01AD01405E5F4FC6
S1131000EA81FB81A18DB28D0E94EC0BDC01CB0146
S1131010905EAF4FBF4F4C015D01BB2334F4FFEF33
S11310208F0EFFE39F1EA11CB11CA5019401012E8C
S11310301EE055954795379527951A95D1F7102DAC
S1131040C701B6010E94900B6B017C01DC01CB014E
S1131050FF2024F481509048AF4FBF4FBC01CD0115
S1131060052E5FE095958795779567955A95D1F705
S1131070502D9B01AC010E94900B4B015C01992304
S11310802CF42FE7820E911CA11CB11CA501940124
S1131090689416F855954795379527951694D1F782
S11310A0EA81FB81A08DB0E00E94E10B4B015C0161
S11310B099232CF4FFE08F0E911CA11CB11CD501C7
S11310C0C401689413F8B595A795979587951694D8
S11310D0D1F7C81AD90AEA0AFB0A1AF4C12CD12C8E
S11310E0760121E0C216D104E10429E1F2063CF0C4
S11310F00F2EC12CD12CE12CF9E1FF2EF02DD701BC
S1131100C601FF2024F48150904FAF4FBF4F072EEC
S11311107CE0B595A795979587957A95D1F7702D2D
S1131120813030E9930731E0A307B10520F080E076
S113113090E9A1E0B0E0F80180879187A287B387A6
S113114080E007C08FEF05C08FEF03C08FEF01C0B1
S113115080E00F900F900F90DF91CF911F910F912E
S1131160FF90EF90DF90CF90BF90AF909F908F90C3
S11311707F906F905F904F903F902F900895DF92F3
S1131180EF92FF920F931F93CF93DF93CDB7DEB708
S113119064970FB6F894DEBF0FBECDBFD82E7B0187
S11311A08A01FE01319688E0DF011D928A95E9F7F4
S11311B038968CE0DF011D928A95E9F7CA010E94F6
S11311C05300811120C0E114F104F9F0980148E0C2
S11311D050E0BE016F5F7F4F87EF0E946C0081116A
S11311E015C0BE01675F7F4FCE0101960E940904BE
S11311F09801275F3F4FA701BE01675F7F4F8D2D89
S11312000E94830403C08FEF01C08FEF64960FB672
S1131210F894DEBF0FBECDBFDF91CF911F910F9128
S1131220FF90EF90DF900895FC0181E080AB86A7EA
S113123087A711AABF018FE00E9480030895EF924F
S1131240FF920F931F93CF93DF93CDB7DEB7289709
S11312500FB6F894DEBF0FBECDBF7B018A01FE013D
S1131260319688E0DF011D928A95E9F7CA010E9450
S11312705300811115C0E114F104A1F0980148E074
S113128050E0BE016F5F7F4F87EF0E946C00182F04
S1131290811109C0B701CE0101960E94090403C05F
S11312A01FEF01C01FEF812F28960FB6F894DEBF01
S11312B00FBECDBFDF91CF911F910F91FF90EF90A3
S11312C00895CF93DF93CDB7DEB76C970FB6F8943C
S11312D0DEBF0FBECDBF81E087B9F89463E370E051
S11312E080E090E00E94F30A0E947B0A0E94850A33
S11312F00E94380A7894E9ECF1E0118212828CE4BD
S11313009AE0948383839683858386E99AE0908721
S11313108783CF010E94250289EC91E00E94140981
S113132000E033243394032511F0409A01C040981F
S113133069EC71E0832D0E94C503E091D001F09126
S1131340D10168EC70E080E090E0099549EC51E04F
S1131350BE016F5F7F4F87E00E941F0949EC51E097
S1131360BE01635F7F4F87E00E94BF0849885A88A7
S11313706B887C88CD88DE88EF88F88CC701B6013D
S11313802AE030E040E050E00E94A00B49015A01FD
S11313902D8B3E8B4F8B588F2D853E854F855889DD
S11313A0A0E1B7E20E94E10B698F7A8F8B8F9C8F4B
S11313B064E670E080E090E00E94960A84E50E9472
S11313C0230BC301B20124E630E040E050E00E9468
S11313D0C20B822F162F0E94230B812F0E94230BF6
S11313E081E40E94230B88E40E94230BC701B60109
S11313F028EE33E040E050E00E94A00B822F0E94D0
S1131400230BC501B40124E630E040E050E00E9423
S1131410A00B862F0E94230B82E40E94230B80E5FD
S11314200E94230B698D7A8D8B8D9C8D24E13CE980
S11314304AE950E00E94A00B822F0E94230B698D81
S11314407A8D8B8D9C8D2DEC3BE841E050E00E9421
S1131450A00BCA01B90124E630E040E050E00E944C
S1131460A00B862F0E94230B83E40E94230B5BCFE7
S113147084B18C6284B91CBC1DBC8DB581608DBDEA
S11314808CB583658CBD229A2A9A08958EBD0DB4BD
S113149007FEFDCF8EB50895CF92DF92EF92FF92B3
S11314A01F93CF93DF9381111AC079016A01862FAC
S11314B02A980E94460AE114F10499F080E090E031
S11314C010E0E601C80FD91F88810E94460A88836C
S11314D01F5F812F90E08E159F0598F302C08FEF58
S11314E002C02A9A80E0DF91CF911F91FF90EF9084
S11314F0DF90CF9008958FE786BD82E085BDEEE64C
S1131500F0E0808181608083089582E08093B00060
S113151085E08093B1001092B2008DE78093B30010
S1131520E0E7F0E080818260808308950F931F9349
S113153000910001109101012091020130910301F9
S1131540AB01BC01400F511F621F731F809100014A
S113155090910101A0910201B091030184179507B4
S1131560A607B70798F31F910F9108951F920F9242
S11315700FB60F9211248F938FE786BD8F910F9032
S11315800FBE0F901F9018951F920F920FB60F92D7
S113159011240F900FBE0F901F9018951F920F9259
S11315A00FB60F9211248F939F93AF93BF938091A3
S11315B0000190910101A0910201B09103010196F3
S11315C0A11DB11D8093000190930101A09302011C
S11315D0B0930301BF91AF919F918F910F900FBE74
S11315E00F901F9018950F931F93CF93DF93C0EC28
S11315F0D0E01882A1ECB0E01C92E2ECF0E01082A2
S1131600072F182F292F33270093C5006093C40098
S113161082E0888388E98C9386E0808310920401B9
S11316201092050110920601109207011092080110
S1131630DF91CF911F910F910895809108019091AE
S11316400701891B08951F93CF93DF93182FC0E4DC
S1131650D0E00E941D0B9E01281B31092330310567
S1131660C4F3E0910801EF73F0E0E757FE4F1083F5
S1131670809108018F5F80930801E1ECF0E08081A4
S113168080628083DF91CF911F9108951F920F9202
S11316900FB60F9211248F939F93EF93FF93909122
S11316A0080180910701981779F0E0910701EF7321
S11316B0F0E0E757FE4F80818093C60080910701D8
S11316C08F5F8093070105C0E1ECF0E080818F7D9E
S11316D08083FF91EF919F918F910F900FBE0F9098
S11316E01F9018951F920F920FB60F9211248F938B
S11316F0EF93FF93E0910601EF77F0E08091C6004D
S1131700E75FFE4F8083809106018F5F809306011F
S1131710FF91EF918F910F900FBE0F901F9018952E
S1131720DB018F939F930E94E10BBF91AF91A29F26
S1131730800D911DA39F900DB29F900D11240895CB
S1131740A1E21A2EAA1BBB1BFD010DC0AA1FBB1FC1
S1131750EE1FFF1FA217B307E407F50720F0A21B33
S1131760B30BE40BF50B661F771F881F991F1A94A0
S113177069F760957095809590959B01AC01BD01CA
S1131780CF010895052E97FB1EF400940E94D90BF7
S113179057FD07D00E94A00B07FC03D04EF40C9415
S11317A0D90B50954095309521953F4F4F4F5F4F42
S11317B0089590958095709561957F4F8F4F9F4FB9
S11317C008950E94F40BA59F900DB49F900DA49FC3
S11317D0800D911D11240895B7FF0C94E10B0E9414
S11317E0E10B821B930B0895A29FB001B39FC0012C
S11317F0A39F700D811D1124911DB29F700D811D39
S10D18001124911D0895F894FFCF00
S9030000FC
